:020000040800F2
:10000000809002203D6B0008B3850108296B000831
:10001000296B0008296B0008296B0008000000000C
:10002000000000000000000000000000816B0008DC
:10003000296B000800000000516E000861140108DF
:10004000096F0008096F0008096F0008096F0008B0
:10005000096F0008096F0008096F0008096F0008A0
:10006000096F0008096F0008096F0008096F000890
:10007000096F0008096F0008096F0008096F000880
:10008000096F0008096F0008096F0008096F000870
:10009000096F0008096F0008096F0008096F000860
:1000A000096F0008096F0008096F0008096F000850
:1000B000096F0008096F0008096F0008096F000840
:1000C000096F0008096F0008096F0008096F000830
:1000D000096F0008096F0008096F0008096F000820
:1000E000096F0008096F0008096F0008096F000810
:1000F000096F0008096F0008096F0008096F000800
:10010000096F0008096F0008096F0008096F0008EF
:10011000096F0008096F0008096F0008096F0008DF
:10012000096F0008096F0008096F0008096F0008CF
:10013000096F0008096F0008096F0008096F0008BF
:10014000096F0008096F0008096F0008096F0008AF
:10015000096F0008096F0008096F0008096F00089F
:10016000096F0008096F0008096F0008096F00088F
:10017000096F0008096F0008096F0008096F00087F
:10018000096F0008096F0008096F0008096F00086F
:10019000096F0008096F0008096F0008096F00085F
:1001A000096F0008096F0008096F0008096F00084F
:1001B000096F0008096F0008096F0008096F00083F
:1001C000096F0008096F0008096F0008096F00082F
:1001D000096F0008096F0008096F0008096F00081F
:1001E000096F0008096F0008096F0008096F00080F
:0401F000096F00088B
:1001F8007BB972B90029BEBF00204FF0004106E06C
:1002080008BF00281CBF6FF000414FF0FF3000F01E
:1002180057B8ADF1080C6DE904CE002909DB002BB5
:100228001ADB00F07CF8DDF804E0DDE9022304B015
:100238007047404261EB4101002B1BDB00F06FF877
:10024800DDF804E0DDE9022304B0404261EB41013E
:10025800524263EB43037047524263EB430300F09F
:100268005EF8DDF804E0DDE9022304B0404261EB0A
:1002780041017047524263EB430300F050F8DDF848
:1002880004E0DDE9022304B0524263EB4303704704
:1002980053B94AB9002908BF00281CBF4FF0FF31E5
:1002A8004FF0FF3000F00CB8ADF1080C6DE904CE4A
:1002B80000F035F8DDF804E0DDE9022304B070470A
:1002C800704700BF10F8012B11F8013B012A28BF25
:1002D8009A42F7D0D01A7047034611F8012B03F859
:1002E800012B002AF9D17047034613F8012B002A85
:1002F800FBD1181A01387047430803F05533C01A68
:1003080000F03333800800F03330184400EB10104D
:100318004FF0013300F00F305843000E70472DE9BD
:10032800F0478C468E46089E154604461946002B13
:1003380040F0D080724547D9B2FA82F74FB1C7F181
:1003480020030EFA07FC20FA03F3BD4043EA0C0C25
:10035800BC404FEA154EA8B2BCFBFEF8230C0EFBBE
:1003680018CC08FB00F943EA0C43994528D9EB1847
:1003780008F1FF3204D2994502D9A8F102022B44B0
:10038800A3EB0903A4B2B3FBFEFC0EFB1C330CFB6E
:1003980000F044EA0344A04214D92C190CF1FF33AD
:1003A80004D2A04202D9ACF102032C44241A43EA35
:1003B80002401EB1FC40002334607360BDE8F08742
:1003C8004246DDE76346F1E7002A79D0B2FA82F3C4
:1003D800002B3FD01946C1F1200302FA01F52EFA8D
:1003E80003F20EFA01FE20FA03F343EA0E034FEA82
:1003F800154E00FA01F4B2FBFEFCAFB20EFB1C2056
:100408001A0C0CFB07F842EA004290455AD9AA1880
:100418000CF1FF3004D2904502D9ACF102002A4415
:10042800A2EB08029BB2B2FBFEFC0EFB1C220CFBEB
:1004380007F743EA02439F4246D9EB180CF1FF3213
:1004480004D29F4202D9ACF102022B44DB1B42EAE0
:10045800004202E0AEEB020301224FEA154EAFB2B2
:10046800B3FBFEFC200C0EFB1C330CFB07F840EA28
:10047800034398452AD9EB180CF1FF3004D298456C
:1004880002D9ACF102002B44A3EB0803A4B2B3FBDE
:10049800FEFC0EFB1C330CFB07F744EA0344A7429F
:1004A80016D92C190CF1FF3304D2A74202D9ACF1AA
:1004B80002032C44E41B43EA00400F46114678E748
:1004C8001F2188E76046ABE76246BFE76046DBE787
:1004D8006346EFE7734506D916B9002108466DE76C
:1004E800C6E9000EF9E7B3FA83F787B9734501D374
:1004F800824207D8841A6EEB030301209C461EB97A
:1005080000215BE73846FAE7C6E9004CF8E7C7F18F
:10051800200CBB4022FA0CF51D4320FA0CF12EFAF0
:100528000CF30EFA07FE41EA0E014FEA154900FAEC
:1005380007F4B3FBF9F81FFA85FE09FB18300B0C1A
:1005480008FB0EFA43EA00439A4502FA07F240D93B
:10055800EB1808F1FF3004D29A4502D9A8F102003D
:100568002B44A3EB0A0389B2B3FBF9F809FB183350
:1005780008FB0EFE41EA03418E452CD9691808F1A3
:10058800FF3304D28E4502D9A8F10203294443EA75
:100598000040A0FB0298A1EB0E014145CE46434620
:1005A80002D306D14C4504D2B9EB020E68EB050321
:1005B8000138002EA4D0B4EB0E0261EB030101FA5E
:1005C8000CFC22FA07F34CEA0303F940C6E90031B0
:1005D80096E74046C5E74346D9E70000000000001B
:1005E8002DE9F04F87B0054616460391836804AAA3
:1005F8005B689847002833DB4CF250334FF0FF39E3
:10060800DFF86C80DDE9044AA4FB03B203FB0A238C
:1006180058460293029914A3D3E90023FFF738FE42
:10062800D945029B074678EB030319D3A6FB04B40C
:1006380006FB0A4458460CA3D3E900232146FFF7DA
:1006480027FED945034678EB040409D3874207D32C
:10065800AA68002128460091039914683A46A047E1
:1006680007B0BDE8F08F00BF00CA9A3B0000000049
:10067800FFC99A3B000000002DE9F04704468AB004
:10068800884617461FF03DFB0A220023FFF700FEAD
:10069800B8F1010F06460D4608D12B4ACDE90001F5
:1006A8000821204616F093FF002012E07F682748B3
:1006B8003946FFF707FE78B139462548FFF702FEAD
:1006C80050B120463B46234A012116F080FF6FF0C7
:1006D80004000AB0BDE8F0873046294618A3D3E9DC
:1006E8000023FFF785FD06460D46104619461A4AAF
:1006F8000023FFF77DFD80460F46104619464EF64B
:1007080060220023FFF774FD824689461046194689
:100718004FF47A720023FFF76BFDCDE904A9CDE908
:100728000601CDE9082308210C4A2046CDE90287B5
:10073800CDE9006516F04BFFB6E700BFAFF30080C8
:10074800005C2605000000004D3302085E330208F5
:10075800613302086A33020880EE360082330208E9
:100768002DE9F04FD51D85B01F4600F1580325F03F
:10077800070504460E460421FF35DDF838B0DDF8DC
:100788004C8006F1800A25F07F05C0E91633129BDC
:1007980000207F2DA5F18009A381119BA060217401
:1007A800A373E0739FED2E7BC4E9060084ED0A7BFA
:1007B80005D880F31188BFF36F8F084602DF3544F0
:1007C8004A46AA2150461FF0C7FC2946204605F094
:1007D800E7FE0730109B314620F00700C4E928A93E
:1007E800C4F8A8002D1A029320460F9B2A464FF002
:1007F8000009CDE900B33B4606F04AFA0F9BC4F85E
:1008080054906367109BC4E91B7BA367EFF31182C5
:10081800102181F31288BFF36F8F134E716A7462CF
:10082800E16782F31188BFF36F8FB8F1000F11D021
:100838001F22414604F180001FF0C5FC84F89F90F8
:10084800B3680BB1D3F8AC302846C4F8AC3005B067
:10085800BDE8F08F84F88080F2E700BFAFF3008036
:100868000000000000000000943B0220000000008F
:100878002DE9F04F2DED028B8FB0002380460792B3
:100888000C920D9305930D4615F8014BACB1202C35
:1008980019D0A4F10903042B15D9252C19D00DA9B9
:1008A80040461FF002FD031EC0F2F180DBB2A342F6
:1008B8000DD00DAA41461FF002FD05980FB0BDEC02
:1008C800028BBDE8F08F0DA940461FF000FD2946B8
:1008D800D9E74F78252F01F10205E0D02A2F03BF71
:1008E8008F78CD1C012400240026A7F13003DBB249
:1008F800092B19D9A20722D5242F22D1079B0C93A3
:1009080024F00204A4B2002201239E4214DC42B166
:100918000C9A731E002E4FEA8303D8BF00231A4493
:100928000C9215F8017BDFE70A2215F8017B44F0E9
:10093800020402FB0636D8E701330122E5E74FF04F
:10094800FF366C2F33D007D8682F24D06A2F3CD0BD
:100958004C2F35D027B9B0E7742F33D07A2F31D048
:10096800974839461FF010FC0028A6D014F0010360
:100978000A9301BF0C9B1A1D0C92D3F8009018BF64
:100988004FF000096E2F23D10D9A0094002348469A
:100998001FF0B2FC9BE72F78682F03D044F02004A7
:1009A8000135D7E744F030046F780235D2E72F7865
:1009B8006C2F02D044F00404F2E744F00C04F3E78F
:1009C80044F00C0415F8017BC4E744F00804F9E787
:1009D800632F1FD114F0020F08BF012604F004048E
:1009E8000DA940461FF061FC002850DBB9F1000F4B
:1009F80002D064B149F8040B013EF1D10A9B002BE7
:100A08007FF465AF059B0133DBB205935FE709F817
:100A1800010BF1E75B2F5BD12B785E2B06BF01350D
:100A28004FF0010B4FF0000B00270DA940461FF0B7
:100A38003CFC0023AA469C46194605F1010E1AF80B
:100A4800012BF2B1F24507D05D2A11D02D2A03D12E
:100A58002BB90A46012309E0002B08BF114688423A
:100A680003DB9042D8BF4CF0010C00231146E6E7A7
:100A7800002805DBDC4511D10DAA41461FF01FFCFB
:100A8800CFB998F8023013F00C0F3FF416AF059B5E
:100A9800002B14BF18464FF0FF300FE7B9F1000FD5
:100AA80005D063074CBF49F8040B09F8010B013E58
:100AB8004FF00107B9D1B9F1000F07D014F00404C1
:100AC8001ABF0023C9F8003089F80040554695E759
:100AD8000DA940461FF0FBFB0028D8DB582F6AD031
:100AE800643FFBB2142B00F2B180142F00F2AE80E9
:100AF800DFE807F063ACACACAC0BACACACACAC5F57
:100B080061ACAC42AC63ACAC610000270DA94046B7
:100B18001FF0CBFB2B2803D02D2809D144F040042B
:100B2800013EAED00DA940461FF0BFFB0028A8DB50
:100B3800302873D1B6F1010B05D00DA940461FF03E
:100B4800B4FB00283EDA0026B246620602D5764299
:100B58006AEB4A0A00943246534648461FF0CCFBDB
:100B68004CE7B9F1000F05D067074CBF49F8040BF3
:100B780009F8010B013E0FD00DA940461FF095FB67
:100B8800002809DB202803D0A0F10903042BE8D8AA
:100B98000DAA41461FF093FBB9F1000F3FF42EAFA9
:100BA80014F004041ABF0023C9F8003089F8004083
:100BB80024E70827AAE71027A8E70A27A6E700BF1F
:100BC8007656020840F02003782B44F080040DD1BB
:100BD80037F010030DD1B6F1020BB4D00DA9404681
:100BE8001FF063FB0028AEDB102702E0002F08BFD0
:100BF80008270026B2463928034682BF00F1FF3392
:100C080043F02003263B303B9F420CD841460DAAB7
:100C18001FF055FB21067FF534AF96E7B346002F4A
:100C2800E7D10A27E5E7A7FB06629E1907FB0A2218
:100C380042F1000ABBF1010B44F0800485D00DA9F4
:100C480040461FF032FB0028D5DA7EE70DA9404662
:100C58001FF02BFB2B28029003D02D280CD144F039
:100C68004004013E3FF40DAF0DA940461FF01DFBA7
:100C7800031E0293FFF605AF029B43F02003692B86
:100C880039D06E2B65D000270A2303930697049763
:100C9800BA46BB46230540F18480029B43F02003FB
:100CA800DBB2A3F16102052A7BD8039A573BDBB27A
:100CB800934280F0D780E10544F0800200F19780EC
:100CC80003990A2904F00C0178D100290CBF0821E6
:100CD80010210698884276DD039A0A2A44F4C074E3
:100CE80040F08680042B40F28380052B00D100233E
:100CF800022204927CE09FED748B774F17F801ABCA
:100D0800BAF1000F13D0013E0DD00DA940461FF0D7
:100D1800CCFA031E07DB43F020035345EED00DAA9F
:100D280041461FF0CCFA6D4B9F427FF4AAAEB0EE5D
:100D3800480B1FF0D9FC28B3013E23D00DA940462B
:100D48001FF0B3FA282814D00DAA41461FF0B7FAAD
:100D580018E09FED5F8B624FD0E720F02003413B06
:100D6800192B06D9A0F13003092B02D95F287FF48B
:100D780088AE013E3FF485AE0DA940461FF095FAB6
:100D88002928EAD1630648BFB1EE488BB9F1000FB4
:100D98003FF434AE14F00C0F00F0748189ED008B31
:100DA8002CE6029B039A303BDBB2934283D3FE2BA3
:100DB80058D1A30556D444F4007422E000290CBF8E
:100DC80007210F2185E7A1054AD40399039CA1FBBC
:100DD8000A0113EB000A04FB0B1141F1000B5AEA5C
:100DE8000B0302D0069B01330693144609E0144610
:100DF800049A002B18BF42F001020492A20500D405
:100E08000137013E07D00DA940461FF04EFA031ED8
:100E18000293BFF63FAF21067FF533AE2205029A53
:100E28004CBF7023652342F0200248BFBF009A429E
:100E380077D1731E039376D00DA940461FF035FA7B
:100E48002B28034603D02D2839D144F48064B21EE0
:100E5800039218D10DAA414618461FF030FA62E0F5
:100E6800013FB2E7029A42F02002782A04F0800398
:100E7800D1D1002BCFD05AEA0B03CCD1102344F4A4
:100E880000640393BDE70DA940460B931FF00DFACC
:100E98000B9B1E460346A3F13002092A22D91846A5
:100EA8000DAA41461FF00BFA731C04D00DAA414647
:100EB80030461FF004FA02980DAA4146CDE74FF0DC
:100EC800FF36E8E7AFF30080000000000000F07F85
:100ED800000000000000F87F2D5702083057020874
:100EE8002A57020800260A2240F2D3418E42DCBF6C
:100EF800A3F1300102FB0616039A013A03920AD0C5
:100F08000DA940461FF0D1F9A0F130010929034687
:100F18004FF00A02E8D9600548BF76423744039E7D
:100F28000293002EC7D15AEA0B0300F0A8802105CE
:100F380004F00C027FD5002A5AD05D4835235A1C8C
:100F4800192A174407BF4FF00071002200214FF4FF
:100F580080028A457BEB02064ED3182B07BF4FF061
:100F68008062002100224FF4000192457BEB0106CC
:100F78004AD2874248DB049A42EA0A0101F0030692
:100F8800032E5A4603D001F00606062E09D1043175
:100F98004BF10002B2F5000F22BF013701214FF4D7
:100FA8008002890841EA8271C3F13506C3F1150C44
:100FB8009208B240153B01FA0CFC21FA03F342EA0D
:100FC8000C021A433A4B984201FA06F62BD1B7F5B0
:100FD800806F5FDAB2F5801F2BD307F2FF3722F458
:100FE800801242EA0753089609939DED088BC9E6DB
:100FF8006FF07D001823A2E71AEB0A0C4BEB0B06E7
:10100800E246B346013FA4E74FEA5A0646EACB76E2
:101018000AF0010C46EA0C0A4FEA5B0B0137A4E719
:10102800B6195241013FB2F5801F30D217F57F7FC4
:10103800F6DA0027D5E7049B0AF0010018430130CF
:10104800069B80081AEB00004BF100013B445AB1A3
:1010580013F5A27F13DDB3F59B7F1BDA3A4600F048
:101068002BF8B0EE408B8DE613F12D0F07DB272B05
:1010780010DC39461FF087F9B7EEC08A82E69FED8B
:10108800088B7FE6B7EEC88B89ED008AB6E4B7F522
:10109800806FA2DB9FED048B74E600BFAFF3008086
:1010A8000000000000000000000000000000F07FC9
:1010B80002FCFFFF000000002DE9FF4780461646AE
:1010C8000F46002900F0A380B1FA81F4341B002EEA
:1010D80004F10A04C0F2A380304613F063FF04440D
:1010E800304613F065FFA4EB06090546694630460D
:1010F80013F086FFA9EB05037D336A46404639465F
:101108001FF010F9A64282460D4600F38480B9F11B
:101118003F0F00F382804FF0FF33A9F1200003FA5C
:1011280000F003FA09F2C9F12001024323FA01F1A0
:101138000A4303FA09F328EA030327EA02021343DE
:101148000CBF01200020002D00F08B80B5FA85F33C
:10115800E31A03F23E4340F2FE72934200F38780A3
:10116800002B23EAE371CCBF0A460122121BA2F22C
:101178003344C4F12007A2F2344EA2F253432AFAB0
:1011880004F605FA07F73E4325FA03F3CEF1200CDF
:10119800A2F254471E4305FA0CFC2AFA0EF343EA5E
:1011A8000C0325FA07F73B4313F0010325FA04F46F
:1011B800CEF12008A2F2544218D04FF0FF3707FAB8
:1011C80002F307FA0EFC4CEA030C27FA08F34CEA80
:1011D800030C07FA0EF72AEA070A25EA0C055AEA69
:1011E800050A42D1002840D006F001039A1944F1BB
:1011F8000004C4F3130452EA040008BFC9181646D1
:1012080044EA015747EC106B04B0BDE8F087B0FA28
:1012180080F420345AE7012095E7002093E7C6F1CF
:101228000009484613F0C4FE241A484613F0C0FECD
:10123800A61B0546694648462E4413F055FF06F19D
:101248007C036A46404639461FF06CF882460D46D4
:101258004046394613F0BCFE81458CBF0020012072
:1012680071E7BAFA8AF3203372E70123BEE79FEDEC
:10127800020BC9E7AFF30080000000000000F07F18
:10128800014811F0C9B900BF2810022030B500226A
:1012980087B0234923481EF07CFD01220023214802
:1012A800CDE9002312F044FB1F48036803F007034D
:1012B800022B05D942F210731C4A032115F0D5FE02
:1012C80000251B4C4FF0FF324FF0FF33194811F047
:1012D800CBF903A902A800F0E5FB08B10395029534
:1012E80005A904A800F0FAFBDDED051A9DED041A26
:1012F800DDED030A9DED020A0D4800F091F994ED29
:10130800141AD4ED130A94ED120A00F0F5FB9FEDC0
:101318000A1AD4ED0F0A94ED0E0A00F021FCD1E769
:101328008912000850110220B00E02206A28020813
:10133800E02502202810022017B7D1382DE9B04344
:101348003A4D88B02B6808AF03F00703022B0ED97B
:10135800374A0321284615F07FFE2B6803F0070360
:10136800022B04D9334A0321284615F075FE00F0F4
:1013780003FB044660B12B685B0705D02E4A034681
:1013880001212A4815F071FE2046BD46BDE8B0830C
:10139800B3EE080A29484FF000084FF0000900F0A2
:1013A800FBF86FF001034FF40062254904942548C7
:1013B800CDE90243CDE90689234BCDE9004411F07C
:1013C80057FC22491F4811F093FB05234FF4805224
:1013D8001F4904941F48CDE90243CDE906891E4BF5
:1013E800CDE9004411F044FC1C491A4811F080FB77
:1013F8002B6803F00703022BC6D96D468AB008AAEA
:10140800174B5361174B936141F28833D3614FF403
:1014180000731384144B42F8103F4FF413512346C2
:10142800024802F067F8AD46AEE700BFB00E0220F2
:101438008C280208B5280208D9280208E0250220CD
:10144800004F02208812022095120008FB2802088B
:10145800803E022088110220875D010804290208C5
:101468000C2902083A29020804000001BEEE006AAD
:101478009FED477A60EE870A60EE067A37EEA07A2B
:1014880077EEE07AB4EEC70AF1EE10FA0FDDB4EEAB
:10149800E70AF1EE10FA70FE275AB4EEE77AF1EE99
:1014A80010FA54BFF0EE676AF0EE476A13E0B4EE44
:1014B800E77AF1EE10FAB4EEC70A77FE275AF1EE92
:1014C80010FAEAD5B4EEE70AF1EE10FA54BFF0EEDE
:1014D800676AF0EE406A76EEA56A66EE866AB6EE50
:1014E800006A30EE260A21EE066A37EE267A77EE93
:1014F800A67A30EE060A37EE067A77EE867AC0EEDE
:10150800015AC0ED005AC7EE015A87EE817AC1ED43
:10151800005A82ED007A90ED007AB5EEC07AF1EECD
:1015280010FA2CD4F7EE007AB4EEE77AF1EE10FA5E
:1015380077FE877AC0ED007A91ED007AB5EEC07A31
:10154800F1EE10FA1ED4F7EE007AB4EEE77AF1EE77
:1015580010FA77FE877AC1ED007A92ED007AB5EE3F
:10156800C07AF1EE10FA10D4F7EE007AB4EEE77A0A
:10157800F1EE10FA77FE877AC2ED007A7047DFED58
:10158800057AD7E7DFED037AE5E7DFED027AF3E7DF
:10159800D7B35D3F0000000010B5A022002104462B
:1015A8002DED048BB0EE408A1EF0D6FDDFED197AE2
:1015B800012304F15800B6EE000AC8EE278A84ED2C
:1015C800158A9FED158A6370F0EE480AB1EE689AA5
:1015D800F0EE681AB0EE491A14F0DBFBF0EE681A68
:1015E800B0EE491A04F16C00F0EE480AB6EE000AB3
:1015F80014F0CFFB04F18000F2EE041A9FED070A05
:10160800BAEE041AF7EE000ABDEC048BBDE81040F0
:1016180014F0BFBBD7B3DD3F00004842CDCC4C3DF2
:1016280090B570EE807A04462DED068B83B0F1EE0E
:10163800677AF1EE0C9A9FED8FAAD0F89C3080ED76
:10164800010AF0EE408A013321EE290AC0ED020AB0
:10165800B0EE608AC0F89C30F0EE4A0AC0ED037A1A
:1016680000AFB0EE619A13F0F5FDB5EEC00ADFEDFC
:10167800827A2378B0EE401A69EE299AF1EE10FAD0
:1016880029EE279AC4ED099A48BF30EE0A1A012BB1
:1016980084ED0A9A84ED081A0DD0032B01D0002B93
:1016A80041D14FF07C532365E364A3640C37BD46F6
:1016B800BDEC068B90BD9FED711A391D384694ED2F
:1016C800160AF0EE410A14F0CBFB04F1500204F1C3
:1016D8004C0104F1480094ED151AD7ED010A97ED75
:1016E800000AFFF7C3FED4F89430013B002BC4F87E
:1016F8009430DBDC6248036803F00703022B03D94C
:10170800604A032115F0A8FC2046022300F8583B44
:1017180014F04AFB04F16C0014F046FB04F180005D
:1017280014F042FBC2E7B2EE047AF0EEE87AF4EE87
:10173800C77AF1EE10FA06DCF0EEC87AF4EEC77A52
:10174800F1EE10FA26DDD4F898304D480133C4F88C
:101758009830032323704FF07C532365E364A3641C
:1017680003685B07A2D06C468AB06A46464BB7EE60
:10177800E80AB7EEC88A059306238DED060B8DEDB2
:10178800088B42F8103F00234FF4415101F0B2FE9C
:10179800A5468BE738EE087ADFED3C7AB0EE680AAA
:1017A80004F1140104F11000C4ED068A37EE287A1A
:1017B800C7EE270AC4ED070A14F02EFB6378012B45
:1017C8000BD194ED0D0A04F18000DFED310A30EE03
:1017D800490A14F0ECFA84ED0C0AD4ED047A04F109
:1017E800580094ED0B0ADFED2A0A30EE670A14F070
:1017F800DEFAD4ED057A84ED0E0A04F16C0094ED5E
:101808000C0ADFED230A30EE670A14F0D0FA94EDE3
:10181800097AD4ED1B6AF0EE400AD4ED0E7A04F191
:10182800440167EE266A94ED056A04F1400094EDE0
:10183800081A46EEC67AD4ED166A27EE267AD4ED53
:10184800046A47EE260AB0EE670AC4ED0E7AC4EDC4
:101858000F0A14F005FB04F1500204F14C0104F1E5
:10186800480094ED151AD4ED110A94ED100AFFF70B
:10187800FDFD1BE7DB0FC940EBC918410000000064
:10188800A40E02204829020857290208D7B3DD3FD1
:1018980017B7D1380346A9B102780AB1032A13D180
:1018A80041F288320948C3F8942001221A7003686B
:1018B80003F00703022B07D94FF4FA73044A0321F4
:1018C80015F0D3BB14F0F0BA704700BFA40E022085
:1018D80074290208B0EE407A9FED0A0AB4EEC07A85
:1018E800F1EE10FA0ADCDFED087AB4EEE77AF1EEF1
:1018F80010FA54BFB0EE470AB0EE670A80ED0D0A41
:10190800704700BF00803B4500803BC510B5DFED48
:10191800137A044658302DED048B10ED017AB0EEA1
:10192800408AF0EE608A87EE279AF1EE499AF0EE47
:10193800491AB0EE691A14F02CFAF0EE491AB0EE12
:10194800691A04F16C00F0EE680AB0EE480ABDECC2
:10195800048BBDE8104014F01CBA00BFD7B3DD3FBC
:1019680003289ABF024B53F820000248704700BF73
:10197800381702088E29020838B52D4C236813F051
:10198800060F04D02B4A0221204615F065FB2A4891
:1019980000F06CFC29481DF01EFD50B923685A0759
:1019A80004D0274A0121224815F056FB6FF0120097
:1019B80037E024481DF00FFD0028EFD022481DF025
:1019C8000AFD0028EAD046F2A81203211B48FEF7B8
:1019D80007FE46F2A81201211A48FEF701FE46F258
:1019E800A81201211848FEF7FBFD184D28461DF0E6
:1019F800F2FC20B923685B07D8D0154AD2E72A69D8
:101A08002846A968136823F4804313604FF4C02262
:101A18000B680E219847236803F00703022B01D8AF
:101A2800002038BD0B4A0321014815F015FBF7E7E4
:101A3800B80E0220B6290208B0250220940C02082C
:101A4800E8290208540C0208740C0208740A0208F7
:101A5800002A02081C2A020803460648026981680F
:101A68005278C2F380129A4214BFCB680B694FF4C4
:101A780080411847740A020813B5094801A9836808
:101A880004695B68984720B9236801985840C0F3F7
:101A980080300028D4BF0020012002B010BD00BF54
:101AA800740A02080A460146024808B500F05EFCBE
:101AB800002008BDB0250220064808B5036803F0D9
:101AC8000703022B03D9044A032115F0C5FA0020A5
:101AD80008BD00BFB80E0220372A02080A46014690
:101AE800044808B514F023FA0248BDE8084000F09D
:101AF80071BC00BFB025022008B52DED048B9FED09
:101B0800149AF0EE608A0321124820EE090AB0EE1A
:101B1800418AFCEEC07A17EE902AFEF761FD68EE66
:101B2800898A01210C48FCEEE87A17EE902AFEF724
:101B380057FD28EE098A01210848FCEEC87ABDEC59
:101B4800048B17EE902ABDE80840FEF749BD00BF98
:101B580000504347940C0208540C0208740C020805
:101B680008B52DED028BB0EE418A064814F0D7F97E
:101B78000448B0EE480ABDEC028BBDE8084000F00E
:101B880091BB00BFB0250220014814F0CDB900BFB9
:101B9800B025022000487047B025022070B52DED11
:101BA800108BAAB0054640220C461AA800211EF048
:101BB800D3FA002328461AAA1893199319ABBA49DD
:101BC800009318AB12F0D0F8051E08DCB749204680
:101BD8002AB0BDEC108BBDE87040FEF77DBBB44960
:101BE8001AA8FEF76FFB40B90120FFF735FF012166
:101BF800B048FFF74FFEB049E9E7B0491AA8FEF729
:101C080061FB064638B90146AA48FFF743FE30464D
:101C1800FFF722FFEFE7AA491AA8FEF753FBC8B956
:101C2800012D01D1A749D2E70121A24814F055F9A5
:101C38009DED180A9F48FFF74DFE9DED187AA24AC0
:101C4800B7EEC77A8DED007B4FF48071204612F015
:101C580061F83BE09D491AA8FEF734FB014698B9A4
:101C6800012D01D19A49B2E7924814F036F99DED59
:101C7800180A904814F035F99DED187A954AB7EE90
:101C8800C77A8DED007BDFE793491AA8FEF71AFBA8
:101C980000BB022D01DC914999E7DDED190A9DEDA4
:101CA800180A8448FFF732FE9DED197A4FF48071C7
:101CB8008B4A2046B7EEC77A8DED027B9DED187AE8
:101CC800B7EEC77A8DED007B12F024F82AB0BDEC90
:101CD800108B70BD83491AA8FEF7F4FA58B9022D83
:101CE80001DC814973E7DDED190A9DED180A714899
:101CF80014F00EF9D8E77D491AA8FEF7E3FA88B977
:101D0800FFF7BAFE08B17A4961E7FFF7D5FE794BCC
:101D1800694A4FF48071002818BF1A46204611F00E
:101D2800F9FFD3E774491AA8FEF7CCFA00284ED178
:101D3800604D2878FFF714FE70490346704A6878AA
:101D4800012808BF0A46D5F89C1020461591D5F8F9
:101D5800981014914FF4807195ED157AB7EEC77A03
:101D68008DED127B95ED087AB7EEC77A8DED107B75
:101D780095ED0C7AB7EEC77A8DED0E7B95ED057A69
:101D8800B7EEC77A8DED0C7B95ED047AB7EEC77A7E
:101D98008DED0A7B95ED027AB7EEC77A8DED087B5B
:101DA80095ED017AB7EEC77A8DED067B95ED0D7A44
:101DB800B7EEC77A8DED047B95ED0A7A0092B7EEFF
:101DC800C77A504A8DED027B11F0A4FF7EE74E4999
:101DD8001AA8FEF777FA78B9012D01D14B49F6E632
:101DE8009DED180AFFF7D0FE9DED187A484AB7EE28
:101DF800C77A8DED007B27E746491AA8FEF762FAF5
:101E0800002848D1FFF7C6FED0ED007A90ED018A90
:101E1800B7EEE77A90ED029A90ED03AAB7EEC88A7A
:101E280090ED04BAB7EEC99A90ED05CAB7EECAAA02
:101E380090ED06DAB7EECBBA90ED07EAB7EECCCA6A
:101E480090ED08FAB7EECDDAB7EECEEAB7EECFFAF4
:101E58008DED167B00F0BEFAB7EEC00A2E4A4FF49D
:101E6800807120469DED167B8DED120B8DED10FBDC
:101E78008DED0EEB8DED0CDB8DED0ACB8DED08BBFA
:101E88008DED06AB8DED049B8DED028B8DED007B0A
:101E980011F040FF1AE71AAB204A4FF48071204630
:101EA80011F038FF12E700BF772A0208822A0208D9
:101EB80007550208E0250220F54A0208942A02087C
:101EC8009C2A0208A62A0208C12A0208D32A020864
:101ED800DE2A0208FB2A02080A2B02081A2B02082B
:101EE8003F2B0208522B0208602B0208832B0208A2
:101EF8008D2B0208622A0208E22E02086A2A0208CA
:101F0800702A0208A52B0208282C0208312C020886
:101F18004A2C02085C2C0208652C0208BA2C02081C
:101F280010B5C0B0044606486946FFF737FE20469C
:101F38006B46044A082115F04AFB002040B010BD4A
:101F48005C2C020805350208012910B50446D0B0FA
:101F580007D80D4A012115F03AFB6FF0150050B073
:101F680010BD53684021094A684611F0D3FE10A9F4
:101F78006846FFF713FE204610AB054A082115F006
:101F880026FB0020EBE700BF3B2D0208512D02087D
:101F980005350208022910B50446D2B007D80E4A02
:101FA800012115F014FB6FF0150052B010BD9368B5
:101FB800402102A800935368084A11F0ABFE12A909
:101FC80002A8FFF7EBFD204612AB054A082115F0E1
:101FD800FEFA0020E9E700BF5D2D02087D2D02080A
:101FE80005350208022910B50446D2B007D80E4AB2
:101FF800012115F0ECFA6FF0150052B010BD93688E
:10200800402102A800935368084A11F083FE12A9E0
:1020180002A8FFF7C3FD204612AB054A082115F0B8
:10202800D6FA0020E9E700BF912D0208B32D020877
:102038000535020810B5C0B0044606486946FFF7E2
:10204800ADFD20466B46044A082115F0C0FA002071
:1020580040B010BD832B02080535020810B5C0B08A
:10206800044606486946FFF799FD20466B46044A30
:10207800082115F0ACFA002040B010BDE22E02088D
:1020880005350208012910B50446D0B007D80D4A15
:10209800012115F09CFA6FF0150050B010BD53687F
:1020A8004021094A684611F035FE10A96846FFF735
:1020B80075FD204610AB054A082115F088FA002066
:1020C800EBE700BFC92D0208E32D02080535020819
:1020D800012910B50446D0B007D80D4A012115F0E2
:1020E80076FA6FF0150050B010BD53684021094AC8
:1020F800684611F00FFE10A96846FFF74FFD20460D
:1021080010AB054A082115F062FA0020EBE700BF82
:10211800F12D0208092E02080535020810B5C0B0D5
:10212800044606486946FFF739FD20466B46044ACF
:10213800082115F04CFA002040B010BD942A02087E
:102148000535020810B5C0B0044606486946FFF7D1
:1021580025FD20466B46044A082115F038FA002070
:1021680040B010BD07550208053502082DE9F041B9
:10217800364A88B00023CDE9042311220221012028
:10218800334C05F05FFD051E0EDA23685B0708D0A7
:10219800304B04F0C7FE1B582F4A0121204614F08B
:1021A80064FF08B0BDE8F081082204A905F07CFDB1
:1021B8002368002803F007030DDA43B1254B04F028
:1021C800B1FE1B58254A0121204614F04EFF28462F
:1021D80016F090FAE5E7022B06D941F28833204A37
:1021E8000321204614F041FF4FF008081D4E1E4CF5
:1021F800CDF80C8003AB06AFFF221A49019328469D
:102208000023009705F0B2FD031EF1DD0021F15413
:10221800334413F8012D0A2A01D00D2A02D1B34202
:102228001970F6D110493046FFF7B8FC0E48FEF792
:102238005BF80A232354039B0B49421C2846CDE92B
:102248000073002305F05CFDD2E700BF010013888E
:10225800940E02200C000000162E0208252E0208FB
:10226800322E0208D43C0220D43B022010B51C2296
:102278000446002114301DF06FFF4FF07C5323609B
:10228800044B6360044BA360044BE360044B23617D
:1022980010BD00BF6F12833ACDCC4C3DACC527377B
:1022A80017B7D138D0ED024AB1EE0C6AD0ED065A14
:1022B800B0EE407AB0EE643A90ED014AD0ED077A7C
:1022C800D0ED003A90ED0B5A05EE843AD0ED086A4D
:1022D80003EEE75A26EE866A10B52DED028B03EE63
:1022E800465A9FED218A24EE066A0446F0EE480A13
:1022F80085EE043A90ED0A5A03EEE55A06EE275A9F
:1023080043EE007A85EE046AC0ED077A46EE005A7D
:10231800B0EE676AF2EE057A64EEA74AD0ED047A69
:10232800C0ED065A66EEA77AD0ED035A54EE867AC7
:1023380090ED056A77EEC67A87EEA56A46EE006AE2
:1023480090ED090AC0ED086A06EE870A12F082FFCE
:10235800B5EEC00AF1EE10FA48BF30EE080A84ED77
:10236800090ABDEC028B10BDDB0FC940F1EE0C7AF7
:1023780070B52DED028BD0ED098A04460E46154640
:1023880068EEA78AB0EE680A12F02AFFB0EE408A1B
:10239800B0EE680A13F02CF994ED077AD4ED066ACA
:1023A80067EE007A27EE087A56EE887A06EE807A8B
:1023B800DFED076AC6ED007A57EE267AB6EE007AA8
:1023C80067EE877AC5ED007ABDEC028B70BD00BF61
:1023D800D7B3DD3F90ED080ADFED027A20EE270A39
:1023E800704700BFEBC918412DE9F041884600AF9E
:1023F800002900F0848005680122284613F0E2FDD8
:1024080001460446284613F097FD10EA020319D145
:102418003C48026856070DD06E4688B06A463A496D
:10242800CDE90518032142F8101F4FF4C25101F0FD
:1024380061F8B546002383F31188BFF36F8F042337
:10244800184602DF2146284613F08CFD2618002284
:102458002846314613F070FD361AB4421BD029487D
:10246800036859070FD06E4688B06946274BCDE9F7
:102478000538032341F8103F13460A464FF4C2516A
:1024880001F038F8B546002383F31188BFF36F8F46
:102498000423184602DF00222146284613F068FD6F
:1024A800214613F05FFD261801222846314613F015
:1024B80043FDC20708D43146284613F0C5FD32460D
:1024C8002146284613F037FE00222146284613F0FD
:1024D80033FD261A01222846314613F02DFDC30785
:1024E80009D43146284613F0AFFD2246344631461A
:1024F800284613F020FE2146284613F03AFEBD4632
:10250800BDE8F081CC0E0220772F02084E2F02087A
:10251800024808B514F028F9002008BDA42F0208C5
:102528000E4A0346904202D30D4A904211D30D4AF7
:1025380022B1934202D30C4A93420AD30B4A52B1B6
:102548000B48834234BF01200020934238BF00204B
:102558007047012070471046704700BFEC0802081A
:1025680038570208000000000000000000000000CA
:10257800000000002DE9F04F9BB004468B4600AFE9
:10258800D7F890A0FA637B6349B9037846788078D6
:1025980000EB830020445E4520D8A0EB040B0AF032
:1025A8000103A678FB62002E0CBF4FF000090AF069
:1025B8000109E3783B6313B11AF0020F17D1B9F19F
:1025C800000F14D1FB6B1BB17A6B59462046984714
:1025D8005D4628466C37BD46BDE8F08F451C0BF1BB
:1025E800010B2846FDF780FE01302844D3E7CAF3E3
:1025F800C003FB612378BB629B00BB6163683B62DD
:10260800BB6A04EB8301FB6B002B40F082805D46C4
:102618000E44B9F1000F1DD08B469946DFF8288388
:102628001BF8013B54F82300002808BF4046FDF77B
:102638005BFED7F8943001304BB1D7F898304B4552
:1026480082BFD7F8943023F8190009F101095E45D3
:102658000544E5D11AF0050F0AF002034FF000080F
:102668000CBF4FF0020B4FF0010BFB633B6B98451F
:10267800AFD27378023654F823A05046FFF750FFC4
:10268800FA6903462AB3B86316F8021C386A14F0CC
:102698001CF8BB6BE8B1A948036813F0060F14D007
:1026A800EA468AB06A46A64B05933B6ACDE90631ED
:1026B8004FF40073ADF82030A24B42F8103F0023CE
:1026C8004FF4125100F016FFD546023D08F10108FB
:1026D800CCE723B1FB6A2BB9A5EB0B05F6E7FB6B3F
:1026E800002BF3D09848BAF1000F18BF5046FDF7F9
:1026F800FBFDD7F8943053B1D7F8983099453FBFD0
:10270800431CD7F8942022F8193009F1010905442F
:10271800DCE7B9F1000F6CD0102E334607F1480002
:102728004FF0000828BF1023BB6397F83890BA6BA6
:1027380079621DF0EAFC796A00228B197A620AF044
:1027480002027B6102333A610AF00402FA607A6A93
:10275800396B8A4262D363781AF0020FF96A7B6296
:102768004B440CBF4FEA58020022DBB2002940F06C
:10277800AC801AF0040F14BF414600216370204654
:10278800A170E270B9697A6BFB6B9847051EFFF67A
:1027980020AFBB6A4146A67007F1580023707B6AD8
:1027A8007A6B63703B6BE370FB6B9847061EC0F255
:1027B800C0803A6BBB69386B03EB4203ABEB030198
:1027C800D7E90D23C91A7B6903EB4000FB6B9847D7
:1027D8000028C0F2B0802E444FF0000807F1480AE4
:1027E8003518C84573D300217A6BFB6B08469847A8
:1027F800EFE666B11AF0040F0DD0102E334607F13C
:10280800580028BF1023BB6397F838808FE7B0467D
:10281800B146BE6390E7C846BE638DE713F8015C16
:1028280013F8021C54F82500BB60FFF779FE024636
:10283800F869BB6838B1386AC7E9013213F045FF57
:10284800D7E9013210BB32B3FA6A72B1B9F10F0F8E
:102858001CD809F1280107F1400009F101020144DF
:102868005FFA82F901F8205C10E0FA6872B1B8F1F9
:102878000F0F0BD808F1280107F1400008F10102F9
:1028880001EB000808F8105C5FFA82F87A6A0233F4
:1028980001327A625BE73A69002AD7D1B8F10F0FA3
:1028A800F4D808F1280007F1400C08F1010208F1FA
:1028B800020860445FFA88F800F8101C07F1680104
:1028C80051FA82F202F8105CE0E7002156E718F8A6
:1028D8000A3054F823B087F84730D7F8943033B328
:1028E800D7F89830984522D2D7F8943033F8186042
:1028F8007A6B012107F14700FB6B984700281ADB28
:10290800114B0544BBF1000F08BF9B4626B958463A
:10291800FDF7EAFC461CB6B27A6B31465846FB6BAB
:102928009847002807DB054408F1010859E7002605
:10293800DEE735464DE605464BE600BF900E022021
:10294800E62F020804000001DF2F020830B5044614
:10295800EFF31185102383F31288BFF36F8F044BB5
:102968000FCB84E80F0085F31188BFF36F8F30BD5C
:102978008813022001281FB50C4605D004281DD055
:102988006FF0150004B010BD1DF0BBF942F21072D3
:102998000023FDF77DFC104B5A43C4E90001A260F7
:1029A8006846FFF7D3FF6946204613F0ABFE18B917
:1029B8000A4B0FCB84E80F000020E3E71DF0A1F9D4
:1029C80042F210720023FDF763FC034B5A43C4E93B
:1029D8000001A260F0E700BFA086010028140208E9
:1029E80001287FB50D462CD18A68174B9A4228D802
:1029F8001DF087F942F210720023FDF749FC4042AE
:102A0800124B61EB41015343CDE900016846029343
:102A180000F0ACF82946684613F074FEEFF311860F
:102A2800102383F31288BFF36F8F094D9DE80F00C1
:102A380085E80F0086F31188BFF36F8F002004B07C
:102A480070BD6FF01500FAE7FFC99A3B6079FEFF89
:102A580088130220014B1860704700BFA0090220AC
:102A68002DE9F84340F26C73446905690646E1179D
:102A7800E41805F10105C76841F10001022D07F1CD
:102A8800FF378CBF00230123E41A61F100010029FC
:102A98004EDA6FF4C7704FF4C8720023201861F142
:102AA8000001FDF7A5FB254B4FF03C0E032D03FB62
:102AB8000044024634BF09206FF00200D6E90083C3
:102AC800B66805444FEAE37C994699206346454336
:102AD8000520C6FB0E93A9FB0EC602350EFB036646
:102AE800A30840F26D1E1CEB080C0EFB043346EBEA
:102AF800E8763B446427B4FBF7F4B5FBF0F51B1B01
:102B08000F4C2B44A2FB042004FB010198180D4A2A
:102B180041F1000380180C4A63F10003A0FB020195
:102B280002FB031110EB0C0041EB0601BDE8F88332
:102B38004FF4C87200232046B3E700BF70FEFFFFC2
:102B4800B13A02009405F5FF8051010010B5FFF776
:102B580087FF002402460B46034904F0E3F944507A
:102B68001046194610BD00BF0C0000001F4B70B581
:102B780082689A4215DD0133D0E9001692FBF3F31F
:102B880001294FEAE37476F100051CDAC91844EB11
:102B98000604C0E90014164901FB032383600120E1
:102BA80070BD002AFBDA9B1A124ED0E90041B3FB34
:102BB800F6F3002910DA01F100459C4275F1000591
:102BC8000ADA0020ECE7CD439D426FF00045A5EB03
:102BD8000605A541DADAF4E7E41A06FB032261F1F7
:102BE80000018260C0E90041D9E700BFFFC99A3BF4
:102BF800003665C400CA9A3B08B500F0B7F80A4920
:102C080001220023416109490361C0E900220A60E9
:102C180007490A60074A1360074A1360074AC0E970
:102C28000233136008BD00BF27360208C00902201E
:102C3800BC09022088260220842602208026022041
:102C48002DE9F04781468846174600F08FF8C3689B
:102C580004461BB943691A78002A3ED10023E36071
:102C680063684B4558F8232008DB314B63612046E5
:102C780000F060F84FF0FF30BDE8F087511C61614B
:102C880092F800A0BAF12D0FEFD1951C6561567826
:102C98002D2EA66004D1927872B901336360E4E7FF
:102CA80056B9234D5146384665611DF06DFA002826
:102CB800DDD05646C4F808A0314638461DF064FAFF
:102CC8003A2E00D070B92B7813B96368013363606A
:102CD800204600F02FF83F20CEE75D1C45611E78A6
:102CE8008660E9E743783A2B0BD0002323612B78E1
:102CF80013B9636801336360204600F01BF8A068CD
:102D0800BAE72B780A4A33B9636801339945636097
:102D180004DD58F82350C4E90452EAE7626120460A
:102D28003D783A2DD5D100F005F82846A4E700BF34
:102D3800273602080168084A084B11604168084AAA
:102D480011608168074A1160074AC1681160026909
:102D58001A6004F017BF00BFC009022080260220B5
:102D6800BC090220882602208426022000487047D9
:102D7800A4090220034A0020536823F00203536089
:102D8800704700BF002004E008B5416805480C31D1
:102D980083681B681BB1984700EAE07008BD6FF0B4
:102DA8005700F9E7140A02080A2810B502D90024C6
:102DB800204610BD044B53F8204020461CF00BFB66
:102DC8000028F5D1F3E700BF70190208064B1A680E
:102DD80042F400721A601A6842F480721A60034B57
:102DE800034A1A60704700BF003C0240EC0D022005
:102DF8000024F4002DE9F047044607464FF0010986
:102E0800DFF84C8094FAA4F5B5FA85F509FA05F3CC
:102E18002E0108EB05156FEA030A24EA03042B7B4D
:102E280063B158F806301B696BB94644032228463B
:102E380007EA0A077368196814F08AF8002CE1D1C8
:102E48003846BDE8F087284698470028F6D1ECE7D1
:102E58007012020810B5002288B00E490E481CF006
:102E680098FF0022002300240C490D480094CDE966
:102E780006230E234FF44072CDE90334CDE9014413
:102E8800084B0FF0F5FE084905480FF031FE2046C3
:102E980008B010BDB52E0008A018022080570220E7
:102EA8009813022005320008A831020801480FF0E3
:102EB800B3BB00BF401002202DE9F04780462048F0
:102EC8000F4614F015F80646002832D0002528468B
:102ED800BDE8F087237B83B12368DB680BB120460C
:102EE8009847636883F8069023681B69CBB96368C1
:102EF80003222046196814F02BF801361034544583
:102F0800E8D3B8F1000FE2D0002DDFD02846FFF754
:102F180071FF0546002FF7D0002164201CF03FFE0A
:102F2800F2E7204698470028E1D009FA06F31D4346
:102F3800E3E7044C0546DFF810A04FF00109DEE78F
:102F48004C270220701202088012020808B50346B6
:102F580008462BB1044A136000F048FD002008BD64
:102F68006FF01500FBE700BFC409022010B5044C40
:102F7800237813B903480FF04FFB0123237010BDCA
:102F8800D43D02204010022010B504460B4813F02F
:102F9800AFFF5CB10A4BBFF35B8F53E8001F0139E9
:102FA80043E80012002AF8D1BFF35B8F054810F000
:102FB800E5FC0548BDE810400FF02EBB4427022071
:102FC80048270220A018022040100220064B0022A9
:102FD800BFF35B8F53E8000F43E800210029F9D1C4
:102FE800BFF35B8F704700BF4427022070B5FFF71F
:102FF800EDFF084C0546084EB44200D370BD636827
:103008005B792BB123685B6813B129462046984742
:103018001034F1E7701202088012020810B5044C4F
:103028000449204613F0ACFC034B1C6010BD00BFE4
:10303800480E02209C1902083C27022000230E4A51
:103048004FF47A710D4810B513700D4A13600D4A8C
:103058001360FFF77BFFFFF7E1FF00F07BF90A4BF6
:103068000A4918468B4200D310BD1A1A5C681033FF
:10307800121101322271F5E7D53D0220136F0108C4
:1030880044270220482702207012020880120208F2
:10309800014600220023014813F093BC480E022089
:1030A800014813F02ABD00BF480E0220024B01461A
:1030B800186813F07DBD00BF3C270220014813F0BB
:1030C800B2BD00BF480E0220354B2DE9F0411B78F8
:1030D800002B61D0FFF7E4FF0446002858D1314B9C
:1030E800314D1B68002B12DD1CF00BFE0A22002359
:1030F800FDF7CEF8D5E90032C01A40F2E93361EBAA
:103108000201984271F1000101D3FFF76FFFD5E981
:10311800003213F57A7342F10002C5E90032002C3F
:103128003AD0BDE8F041FFF7C9BF6B685B793BB1A6
:1031380021784B0717D52B68214628461B689847E6
:1031480010354545F1D32046FFF7B0FF174BBFF3C5
:103158005B8F53E8001F013943E80012002AF8D1B9
:10316800BFF35B8FBBE726882046C1F3C20700F098
:103178009FFAC6F382160246002EDCD00028DADB5E
:1031880001233946284600F08FF9B042D8D3D2E758
:10319800074DDFF82080D4E70020BDE8F08100BFAC
:1031A800D43D0220442702209818022048270220F4
:1031B800701202088012020870B50D4D297861B9A5
:1031C8000C4C01200C4EFFF777FEB44206D3FFF7F4
:1031D8007BFF0028FBD101232B7070BD63685B79EE
:1031E8001BB1236820469B6898471034EDE700BF61
:1031F800D53D0220701202088012020800212DE934
:10320800F8430846FFF758FE044648B34FF4FA78E7
:103218004FF000091B4B03F085FE1B4A1B58136037
:1032280033B11A4B1B68092B02DD19480FF0F4F96A
:103238000025184F44B12046FFF7DCFD044618B9B5
:103248004FF0FF384FF0FF39FFF73EFF064628B929
:10325800B5B90F4842464B460FF006FA3546E9E73E
:103268004FF0FF384FF0FF39D4E72B689B691BB14B
:1032780000222846114698471035BD42F5D3E8E7A5
:10328800054DFAE7080000004027022048270220E1
:1032980040100220801202087012020813B5184864
:1032A80013F026FE174B1B7873B1EFF3118410232C
:1032B80083F31288BFF36F8FFFF706FF84F311883B
:1032C800BFF36F8F02B010BD0F4B1B68002BF9D0F6
:1032D80050B9002200230D48CDE9002342F21072B4
:1032E800002310F025FBEDE70928EBD1074810F083
:1032F80045FB074802B0BDE810400FF08DB900BF8C
:1033080048270220D53D022040270220A01802208D
:1033180040100220064B10B504461B68984721460A
:10332800A060044813F0CAFBBDE81040FFF7B6BF21
:10333800C4090220480E0220044A054B9B1AB1EB2F
:10334800D30F34BF52F8310000207047A011020893
:1033580070120208084B0021084A09489B1ADB082A
:10336800994200D170470268013122F0070242F009
:10337800030240F8042BF3E770120208A0110208B8
:103388008C0E0220F8B50B4F06460B4B0024DB1BB6
:10339800DD08AC4203D14FF0FF342046F8BD57F8A2
:1033A800340020B13146FCF78DFF0028F5D00134F8
:1033B800EFE700BFA01102087012020800282DE9EB
:1033C800F047884615461F461DDADFF8A8904FF0EB
:1033D800000A244E5446A6EB09063609B24509F1FF
:1033E800100902D12046BDE8F08759F80C0C3B467D
:1033F8002A46414600790AF1010AFFF7DFFF8442B5
:1034080038BF0446EAE7184B184AD21AB5EBD20F70
:1034180025D203EBC5031C79BC4228BF3C46C0B289
:103428000722134E002100EB400056F82530824059
:1034380023EA020304F0070282401343032223FA1B
:1034480002F0033200F00700814238BF01461E2A0D
:10345800F5D123F007030B4346F82530C2E70024D3
:10346800DDE700BF80120208A011020870120208EE
:103478008C0E022070120208F8B5094D0646094B59
:103488000F460024ED1AED08AC4200D3F8BD22B275
:1034980001343B4600213046A4B213F051FDF3E756
:1034A80070120208A011020870B14168097973B15D
:1034B800002A17DBCBB20C4903EB430351F8220077
:1034C800D84000F0070070474FF0FF31EFE7074999
:1034D8000748401AB2EBD00F3ABF01EBC201087996
:1034E80018467047042070478C0E0220A01102086D
:1034F800701202082DE9F04F8FB0C1F34A260D462D
:10350800904604AF0C0DB8607B60002E65D04FF07C
:1035180000090A234FF0040B07F1140AFE604A461B
:10352800C7F824904046C7E90799009307F11C03A0
:10353800CDF808B0CDF804A0F968FFF71BF8B0F58E
:10354800006F034620D32948036813F0060F17D0ED
:103558006C468AB0D8F8041004AB254D1A46C3E966
:10356800055140F2FF71D9614FF400711984214B64
:1035780042F8103F4FF412514B46FFF7BBFFA546E8
:103588002C37BD46BDE8F08FC0F30A0604F11700DA
:103598003B60184466F3532520F007008008FFF7C6
:1035A80077FD044680B13B6800F11001124A40469D
:1035B800F961C7E908390A23009307F11C03CDE92B
:1035C80001ABF968FEF7D6FF66F353257B68B96847
:1035D80020462A4613F0F0FCD2E704F1170020F049
:1035E80007008008FFF754FD0446EDE7A80E022007
:1035F800BD31020804000001936F01082DE9F04F66
:1036080087B00546884614469946DDE9127ADDE911
:10361800106BDFB110213B465A460020CDF800A0C0
:10362800CDF814A012F077FEB0F5006F01460FD365
:103638001D48036813F0060F32D040F2FF731B4A8F
:10364800022107B0BDE8F04F13F00FBD39463846E8
:1036580004F0070305F00704E40044EA831444EA8D
:10366800402444EA065406F117000391084420F068
:1036780007008008FFF70CFD054640B13FB13B4607
:103688005A4603991030CDF800A012F044FE4B467C
:1036980022464146284607B0BDE8F04F13F08CBCDF
:1036A80007B0BDE8F08F00BFA80E0220FC31020869
:1036B800406820B1034BC01A40F38F0070474FF0A9
:1036C800FF3070478C0E02200EB403B503AB0146E1
:1036D800054853F8042B019303F0B6FD02B05DF8DA
:1036E80004EB03B0704700BFD5700108CA0605D4C3
:1036F8008B064CBF02490349FFF7E6BF704700BF7E
:1037080026360208343202082DE9F04F8BB099466C
:1037180004460D46179B9DF8588007931A9F0692FA
:10372800DDE918A30593B8F1000F00F0BC80834BC6
:1037380007F0020B13F80830089307F48073099315
:1037480013F0FCFB024600287AD07D492046FFF79B
:10375800BBFF0646BBF1000F08D017F0440F71D12C
:103768002A4678492046FFF7AFFF064407F00103D1
:1037780053B1754B2046754953F82820744B002ADD
:1037880008BF1A46FFF7A0FF07F48073002B07F065
:10379800080318BF4FF00009002B7FD06D4B20465F
:1037A8006D4953F82820FFF78FFF0546069B2BB17C
:1037B8001A466A492046FFF787FF0544B9F1000F0A
:1037C8000DD0089B002B6CD06549664BB8F1040FEF
:1037D80018BF19464A462046FFF776FF0544354488
:1037E8006148079B1BB12246604912F03DFF059BCB
:1037F800002B00F08E80059B002639462046102BB2
:1038080028BF10239946FFF771FFB54252DC002606
:1038180033461AF8032020465549FFF755FF01366D
:10382800102E4DD0710703D152492046FFF74CFFA7
:103838004E453346EDD350492046FFF745FFEEE7A6
:10384800064687E74D4B186800288ED04C4B4FF43E
:103858007A7B4FF03C0C1B68B5FBF3F5B5FBF0F138
:1038680000FB11554FF461630BFB05F5B1FBF3F257
:10387800B5FBF0FE03FB121100FB1E55B1FBFCF378
:103888000BFB05F50CFB1311B5FBF0F50091204679
:103898003C49CDE901E5FFF717FF66E707F00805A2
:1038A80084E7304996E7B9F1010F45460CBF2E4829
:1038B800354896E72F4920460136FFF705FFA4E76C
:1038C800002632492046FFF7FFFE33461AF8032048
:1038D80020462F49A2F120035F2B28BF2E22FFF795
:1038E800F3FE0136102E0DD0720703D12149204670
:1038F800FFF7EAFEB1453346E8D81E492046FFF7F0
:10390800E3FEEEE7059BCA44B3EB090305937FF496
:1039180072AFB8F1000F0AD0FB0704D50C4A204655
:103928000A49FFF7D1FE39462046FFF7DFFE204659
:103938000BB0BDE8F04F13F0BCBB00BFB256020895
:103948003A40020845320208B0190208D73802087E
:1039580037320208C41902086A32020870320208B3
:103968003C32020840320208D57001085172000842
:10397800743202087C3202087A3202085427022084
:10398800502702204E3202080B7101087E320208CD
:103998001E40020842F20F73114A8B4273B5044667
:1039A80028BF0B4605680521684610F0B3F963681F
:1039B80006460B2228465B680A4913F06CFB6368CD
:1039C8003246694628465B6813F065FB63681B222C
:1039D80005495B68284613F05EFB02B070BD00BF66
:1039E80030520208A65602088A560208002101230E
:1039F800064A904206D8064A01B901231360054BCE
:103A080018607047400801215B00F2E740420F0050
:103A18005027022054270220014B036003207047DF
:103A2800D819020810B504460DF0DCFD034A034618
:103A38000821204613F0CBFD002010BDF832020803
:103A480037B51346002205460A21019201AA586893
:103A580001F09CFE019C4CB920EAE0700A21A0FB11
:103A680001011CF09CF8204603B030BD2346034AF0
:103A78000121284613F0ABFD019CF4E7243302082A
:103A880008B5034A0821034B13F0A1FD002008BD27
:103A98001B34020814340208F7B5174600230546FC
:103AA80001AA0A21B868019301F070FE194AC6B24A
:103AB8000321284613F08BFD019C4CB12346164A7E
:103AC8000121284613F083FD019C204603B0F0BD78
:103AD800042E0AD93346114A0121284613F077FDEE
:103AE8002846012413F0A9FDEFE77868FFF74AFCA0
:103AF800021E08DA7B680121094A28466FF015047E
:103B080013F065FDE1E7334612B22146204613F073
:103B180017FADAE746340208AC340208D33402084C
:103B2800EA340208002307B50090694604488DF876
:103B380004300FF0ADFC9DF8040003B05DF804FB01
:103B48009571010838B50446EFF31185102383F306
:103B58001288BFF36F8F0DF02FFD034685F3118890
:103B6800BFF36F8F074A2046082113F030FD064A3D
:103B78002046082113F02BFD214604480FF0A2FC33
:103B8800002038BD4935020868350208993B00080D
:103B980070B58EB004460D46D0F8A4601BF0E3FE65
:103BA800264B024603F0BEF919582846244B002A32
:103BB80018BF1346234ACDE90043234B8C4218BF54
:103BC8001346224A082113F002FD28460821D4E9A9
:103BD8000A23CDE9022394F90E301D4A0093A389E4
:103BE80013F0F5FC06A9202220460EF091FFE26EA4
:103BF8000346082100922846164A13F0E8FC05A956
:103C080020461BF0BEFE034630B1134A0821284661
:103C180013F0DDFC0EB070BD059A64232846B11A76
:103C28004B43B3FBF6F3CDE90021CDE902630B4A20
:103C38003346082113F0CBFCECE700BF0800000076
:103C4800723502087C320208504A020875350208AB
:103C580081350208AD350208C4350208F13502087D
:103C680030B593B00446202200210AAD28461CF046
:103C780073FA1A22202128461CF06EFA21461148B0
:103C88000FF020FC09AA4FF400610F481BF06DFEED
:103C9800099A64230195C2F50061002520464B432B
:103CA8000095DB0A06934FF40063CDE90413CDE9D0
:103CB8000232054B0821054A803B13F088FC284650
:103CC80013B030BDD93C0008807602204236020885
:103CD800F0B5044689B00D46D0F8A46007A91BF0DA
:103CE80050FE034630B1104A0821284613F06FFCF5
:103CF80009B0F0BD20460D4F1BF035FE079A64232E
:103D0800002818BF0746B11A28464B43B3FBF6F301
:103D1800CDE90221CDE90463054A23460821CDE90E
:103D2800007613F054FCE3E7C43502087235020844
:103D38008B36020838B5134605461022002158680C
:103D480010F0A6F80446FFF7EDFE40B923460F4AE7
:103D58000121284613F03BFC6FF0150038BD0C4BD1
:103D680003F0E0F81B589C4205D10A4A0121284675
:103D780013F02DFCF0E720460EF018FF28462346E6
:103D8800054A082113F023FC0020E7E7EF36020874
:103D9800080000000A3702083237020838B513460F
:103DA800054610220021586810F072F80446FFF703
:103DB800B9FE40B923460F4A0121284613F007FCF3
:103DC8006FF0150038BD0C4B03F0ACF81B589C4243
:103DD80005D10A4A0121284613F0F9FBF0E72046ED
:103DE8000EF004FF28462346054A082113F0EFFB8E
:103DF8000020E7E7EF3602080800000071370208E4
:103E08009737020838B5134605461022002158682E
:103E180010F03EF80446FFF785FE40B923460F4AE6
:103E28000121284613F0D3FB6FF0150038BD0C4B69
:103E380003F078F81B589C4205D10A4A012128460C
:103E480013F0C5FBF0E7204602F0E8FF28462346BA
:103E5800054A082113F0BBFB0020E7E7EF3602080C
:103E680008000000D2370208F737020810B50C46E0
:103E7800002113F04DFE00B100680023024A2060C3
:103E8800E360C4E9012310BD1739020810B50C46D8
:103E9800002113F041FE00B100680023024A2060AF
:103EA800E360C4E9012310BD1739020873B505465C
:103EB8005068144613F034FE064650B963686FF034
:103EC8001204114A0121284613F081FB204602B052
:103ED80070BD1BF080FA38B163680C4A022128468D
:103EE800002413F074FBF1E730461BF06BFA6368AB
:103EF800044630B100900121054A284613F067FBBB
:103F0800E4E7044AEAE700BF2F3802084438020809
:103F180066380208933802082DE9F04F8FB004463E
:103F28008846914601A80DF081FF019F2D4A08217E
:103F380007EB4017204613F04AFB019EBE4203D30D
:103F480000200FB0BDE8F08F35680DB12B7833B97C
:103F580002AD3346244A302102A80FF0DBFEB8F147
:103F6800020F07D1D9F8041028461CF061F908B9E6
:103F78002036E3E72B461D4A0821204613F027FB8D
:103F880030461BF028FA1A4A1A4B0821002808BFA5
:103F98001346194A204613F01AFBF369002BE7D0A1
:103FA8001D68002DE4D02B68002BE1D0AB464FF004
:103FB800000A124A0821204613F009FB2B685345D2
:103FC80005D80F4A0821204613F001FBD0E75BF81B
:103FD800043F08210B4A20460AF1010A13F0F7FAB8
:103FE800ECE700BFC6380208D0380208D538020806
:103FF800BD380208B73802083D380208DA38020826
:1040080026360208D6380208F7B5137806460F4652
:1040180015463A2B14D1541C23783A2B29D1013454
:104028000A2201A920460FF0BFFE019A0346386014
:10403800A24218D01078B0B93C2B16D9164A0EE017
:104048000A2201A928460FF0AFFE019CB860AC42D5
:1040580009D023783A2B06D1172808D90F4A01210D
:10406800304613F0B4FA6FF0150003B0F0BD013418
:10407800D2E70A2201A920460FF096FE019B78603C
:10408800A342F0D01A783A2AEDD13B2801D9044A44
:10409800E5E75C1CC4E700BF7F3902086139020804
:1040A8006F3902082DE9F04196B00D46044601200B
:1040B80008A91746FEF75EFC0DA908A80FF07CFDBD
:1040C800032D57D17D680A2207A928460FF06CFEF8
:1040D800079E8046B54216D032782D2A13D1013674
:1040E8000A2207A930460FF05FFE079B9E420AD0BE
:1040F8001A782D2A07D1451E0B2D0DD9314A0121D9
:10410800204613F064FA204613F097FA6FF015056D
:10411800284616B0BDE8F0815E1C0A2207A9304681
:104128000FF042FE079B9E42EDD01B78002BEAD190
:10413800431E1E2B01D9244AE1E7A8F26C73BA6822
:104148001090CDE911530DA92046FFF75DFF002817
:10415800D9D10DA8FEF7FAFCB1F1FF3F08BFB0F1C5
:10416800FF3FCDE9080109D1184A0121204613F083
:104178002EFACBE7022DC6D17A68E4E700230A932A
:10418800012008A9FEF72CFC054630B10346104A69
:104198000121204613F01BFAB8E70D9B08210D4AB0
:1041A800204604930E9B03930F9B0293109B01934D
:1041B800119B01330093129B03F26C7313F007FAFF
:1041C800A6E700BF8F3902089E390208AB390208FA
:1041D800D4390208EB39020810B594B0044601201E
:1041E80006A9FEF7C7FB0BA906A80FF0E5FC0B9B79
:1041F80020460A4A049308210C9B03930D9B0293C3
:104208000E9B01930F9B01330093109B03F26C7379
:1042180013F0DDF9002014B010BD00BFEB3902081F
:104228002DE9F341144688460746102200216068AC
:104238000FF02EFEB8F1020F064620D90A220021FF
:10424800A0680FF025FEC5B22B46234A0821384640
:1042580013F0BDF9B8F1030F22D8102D11D0202D7D
:1042680012D0082D12D13378DBB20022082138464B
:10427800CDE90032194A13F0AAF900200DE02025F3
:10428800E2E733889BB2F0E73368EEE73846144A32
:10429800082113F09CF96FF0150002B0BDE8F08119
:1042A8001022E06800210FF059FE0E4A0446CDE9BD
:1042B80000010821384613F08AF9102D06D0202D68
:1042C80007D0082DE2D1E4B23470D6E7A4B2348026
:1042D800D3E73460D1E700BF3A3A0208653A0208EA
:1042E8004F3A0208783A02082DE9F047002386B0D1
:1042F8004FF0FF35914601930122524B20262C4660
:10430800074688461A60FEF777FC4F4A49464046FA
:10431800FEF796FC431C07D1691C43D14B4A012187
:10432800384613F054F918E073281BD0772829D0A1
:10433800612812D1DFF830A101AA1021DAF80000B3
:1043480001F024FA019B0546002BDED0DAF8003094
:104358003F4A0121384613F03AF96FF0150006B0CC
:10436800BDE8F087DFF800A101AA0021DAF8000013
:1043780001F00CFA019B0446002BC6D0DAF8003095
:10438800344AE6E7DFF8E0A001AA0021DAF80000E5
:1043980001F0FCF9019B0646002BB6D0DAF8003094
:1043A8002D4AD6E7621C01D12C4AB8E75FFA86F895
:1043B800C6F3C406A8F10803DBB2182B04D8284AB0
:1043C80022FA03F3DB0722D44346264A0821C1E731
:1043D800B8F1100F22D0B8F1200F25D0B8F1080F8E
:1043E80001D10A781A70314433444218102AEFD99F
:1043F800102CA146294605F1100528BF4FF01009D9
:1044080002AA3846A4EB09044B4601F0E7F9B4B117
:10441800A642EDD802AB2946701BE6E70A8892B29D
:104428001A70120A5A70DEE70A68C2F3072C1A706B
:10443800120C83F801C09A70120ADA70D3E720468A
:104448008DE700BFBC090220C83A0208CF3A02082B
:104458008E3A0208A13A0208B43A0208EC3A020875
:1044680001010001063B02088026022070B50F4EAC
:1044780004460D46337831B12BB10D4A0121BDE810
:10448800704013F0A4B883F00103337033B1094AC4
:104498000821204613F09BF8012333702946204653
:1044A8000022BDE8704013F0E2B800BFD63D0220FC
:1044B800203B02085B3B02082DE9F04105460C460B
:1044C8008F18DFF808813A4EBC4201D1BDE8F0816F
:1044D80098F8002014F8013B182A23D1112B21D178
:1044E800344C0026344A08212368284688F800609E
:1044F80013F06DF828463146FFF7B8FF2F4B1878B0
:104508000028E3D12E4A23681168042B2EDC08B159
:104518002360116013F003012FD1126813681BBACE
:104528001360D3E7A3F1300288F80030092A04D9D0
:1045380023F02002413A052A04D83168214A53540D
:10454800013131603368022BBED1102200211D4891
:104558000FF09EFC1C4A136803F8010B1360154A00
:1045680013680133136000233360ADE70868043B28
:1045780000BA41F8040B0120C7E75B4203F00303CC
:1045880058BF5942022904D1126813685BBA9BB21A
:10459800C6E703299AD1106802681104C2F30743D9
:1045A80002F47F4201F47F010B43134303608DE75C
:1045B800582702205C270220853B0208D83D0220AC
:1045C80060270220D93D022064270220D73D02201F
:1045D8002DE9F84300230D4627498046274E174604
:1045E8000B60274933700B60012DB94657F8044F0B
:1045F8001DD90222234920461BF0D3FD70B9A378A8
:10460800003B18BF01231C4402221F4920461BF00F
:10461800C8FD28B901233370013DE5E70023F2E71F
:1046280018492046FBF74EFEC0B909F104090022DB
:10463800D9F8040011460FF02BFC0022134B114649
:104648001860D9F804000FF023FC114B11491860C9
:104658004046FFF70BFF0020BDE8F88323782D2B99
:10466800E5D16378002BE2D023460B4A0821404667
:1046780012F0ADFFD0E700BF58270220D83D022036
:104688005C2702209F3B0208A23B02086427022005
:1046980060270220C1440008A53B020807B5094865
:1046A8001AF099FE58B104233A22064900930123CF
:1046B800054800F083FF002003B05DF804FB6FF0AD
:1046C8001200F9E7140C02088012020810B54468B9
:1046D800A360C4E9001242684021134653F8404BD6
:1046E800516302F1380153620023C2E9041308211F
:1046F8001363C2F8B8301162C2E90A33C2E906335B
:10470800A36823B19B6C13B1044920469847A3685A
:104718009B6A0BB120469847002010BD2947000826
:104728002DE9F74F836805460C465B6C03B1984743
:10473800AB685B6B002B35D14FF0000804F12409FE
:10474800DFF810A1218E04F1280B238D4846626BF7
:104758005B1A59469BB2D31A934228BF134601AA43
:1047680012F079FA0746002841D0AB6801999B6995
:10477800002B37D00246284698470646002818BF1F
:1047880048F0010832465946484612F09AFA0EB1E6
:10479800BE42D7D0B8F1000F08D00020D4E90131CB
:1047A800984703E0284698470028C5D1AB685B6A5C
:1047B80093BB628B04F11007E38A04F11A083846A8
:1047C8009B1A226A41469BB2934228BF134601AA0C
:1047D80012F041FA064630BB284612F0EDFCC4F848
:1047E800B8602CE06FF057064FF00108CAE7DAF816
:1047F800003013F0060F04D0154A0221504612F07B
:104808002BFCAB689B69002BC4D001220DF103017E
:10481800284698470646BAE7284698470028C8D148
:1048280003B0BDE8F08FAB6801995B6963B10246DC
:104838002846984702464146384612F042FA012077
:10484800D4E901319847EBE76FF05702F3E700BF6F
:10485800073D0208DC0E022010B5816804461C31B1
:1048680001F04CFBA1682046024A1C31BDE810400B
:1048780001F0E4BA493D02082DE9F3410646144621
:10488800D0F808800F4621B9A8F8441002B0BDE856
:10489800F081184812F023FDB8F83E5004442D1A50
:1048A8003846A4B212F01BFDB8F8443095FBF4F575
:1048B8005A1CADB2241AA8F84420A4B2B3FBF5F2EE
:1048C80005FB12339BB26BB90A4B06210A4A3046E4
:1048D800009713F013FB2146304602B0BDE8F041C3
:1048E80001F000B83B46054A0621304613F006FBA6
:1048F800F1E700BF7B320208573D0208D7380208AB
:104908008368D3F880329B0603D50249406912F0C8
:10491800BBBC70475014020810B5044612F0F9FCED
:104928000146A3689B6C0BB120469847A3680022F8
:1049380002F0F8FAC3F8AC22014B185802F06EFAEC
:1049480008000000014912F09FBC00BF263602088B
:104958002DE9F04FA7B004461422002107A81BF048
:10496800FBFB5422002111A81BF0F6FB0023204674
:10497800CDE90533A3686033029313F0EBF92046C1
:1049880013F02FF910B96069FFF7DCFFA068142253
:10499800002100261C304FF0FF381BF0DDFB2046BD
:1049A80013F07CF8A168E068B246B1F8582011AF5E
:1049B8006031B3463546B14613F05AFD204613F030
:1049C800BBFD0396DDE90532012A6BD0132B6CD8A9
:1049D800B8F1000F2AD1BBF1000F0AD0204613F01E
:1049E800CCFDA268142311A960320DEB030012F06C
:1049F800F2FEB9F1000F0CD099F81130FE2B08D156
:104A0800059B26AA02EB830252F8542C0AB1013303
:104A18000593A068836A002B40F0B580C6B1036A8D
:104A2800B3422BD000F11C050D9622E00223029A16
:104A3800394606A812F0CFFE7A6806990346029214
:104A480031B101290AD148B1694A204613F056FA12
:104A58006FF00705284627B0BDE8F08F059B002BAF
:104A680032D0386801F07AFA98B166B1A5680D9627
:104A78001C350CAE0FCE0FC533682B6020460125C0
:104A8800FFF7EAFEE6E75B4A0121204613F036FA13
:104A9800DEE7059BC3B13A682946204601F008FCC9
:104AA800022809D1059B132B95D9069B022B92D17D
:104AB800514B0121514AC8E7032805D0059B4FF007
:104AC800010B013305937DE7039B2BB907AA3968CE
:104AD800484612F056FF0546043708F1FF38A5B3DB
:104AE800EB68BBF1000F08D0FBB1204613F032F998
:104AF800204613F08DF8424AC6E7B3B1A368AE4624
:104B0800DDF814A003F11C0CBEE80F00ACE80F00A0
:104B1800DEF80030CCF80030AB6833B96B7CFE2B84
:104B280004BF95F8108008F1FF38D5F804C0BCF12F
:104B3800000F08D0AE460CAEBEE80F000FC6DEF878
:104B4800003033606646A94603E0059B63B1012344
:104B58000393B8F1000F03D1069B022B7FF432AF09
:104B6800059B013305932DE7A3681B6B13B1DB6825
:104B7800002BECD1234B0121234A20460093119BA3
:104B880013F0BCF9E3E7059D90F82C30A5EB0A0576
:104B9800BBB190F82D104FF6FF72FF2918BF0A46D7
:104BA8009D4202D313449D420BD9C3690121174A80
:104BB800204613F0A3F920466FF01505FFF74CFEC9
:104BC80048E7012112F0CBFBA06812F0BCFBA368F8
:104BD80011AA29469B6A204602EB8A029847054695
:104BE800A06812F0B4FB0021A06812F0B8FB31E70E
:104BF8005D3D0208713D0208D23D020805350208F4
:104C08008F3D0208BE3D020899400208F63D0208A1
:104C180070B5836804469E7D012E3AD1A368D3F807
:104C280080329A0603D51F49606912F02DFB204691
:104C3800FFF766FEE06913F097FA012E05462CD1BE
:104C4800A368D3F880329B0603D51749606912F030
:104C58001BFBA3689B6923B1144A0821204613F063
:104C68004DF9204600F054FE204612F0E0FFA368FC
:104C7800B3F858301BB1962000211AF090FF3DB1CF
:104C8800A068012100F5227012F039FB0028C3D07A
:104C980070BD204613F089F8CCE7204600F0BCFF31
:104CA800E5E700BF5514020859140208D73802086E
:104CB80010B50222836804461A758368DB6CBBB999
:104CC80012F0D7FA8368D3F88432DB040BD50321BA
:104CD800084B094A13F012F9A0686FF4805100F5E7
:104CE800217012F0EDFA2046BDE8104000F094BFA4
:104CF80010BD00BF113E0208D73802082DE9F04F59
:104D08000023ADB004460593A3686068DE6C0268B2
:104D180015692EB31F6D102205AB17A9A8470028E7
:104D28001BDB059BCBB10121A06812F018FBA06822
:104D380012F009FB3B46059A17A92046B047A06820
:104D480012F005FB0021A06812F009FBA368DB6CD8
:104D5800002BD9D12046FFF7ABFF2DB0BDE8F08F6F
:104D680005AB01220DF11301A8470028F5DB059BCF
:104D7800002BF2D09DF913109DF813300029A2687A
:104D8800C2DB517D032900F2B683DFE811F004008D
:104D980037034E03B4030D2BD2F8841241D00A2BEB
:104DA8003FD021F0FF01092BC2F884126BD028D81C
:104DB800002B00F02B81082B00F09A82A268D2F811
:104DC80080128F0740F12281013B162B00F21E81D1
:104DD800DFE813F07A03AD02B102A9027403CA0234
:104DE8001C011C011C011C01CE02D2021C01E7029D
:104DF8001C01EC021C011C011C01EE02FE021C013C
:104E08000C031B2B3BD07F2B00F07F82A3F12002E9
:104E18005E2AD3D80121A06812F0ACFA9DF81310CD
:104E280015E1C9B221B1D2F88412C9B28B42C5D1F9
:104E3800D2F8841263F30701C2F88412A568AB7D27
:104E4800012B06D16069FFF77DFDA36802229A75E0
:104E580083E7B5F8581061B9284612F08BFAE06874
:104E680013F0D8FA6069FFF76DFD2046FFF720FFC1
:104E78004AE72046FFF76CFDC5F8B002F5E7A368DE
:104E880001225A75C2E0A068D0F880329E07C3F3A9
:104E9800400940F1BB80012112F06CFAA068857DC1
:104EA800002D40F0B380B0F85830FF2B00F0AE80F2
:104EB800B0F85A2000F1600100F5B0701BF025F938
:104EC800A368B3F85A20134483F86051A068B0F877
:104ED8005A5055B1054495F85F50202D00F0888050
:104EE800093D042D8CBF0025012500F5B070024650
:104EF800137811460132DBB1202BF9D0093B042B82
:104F0800F6D98DB90A4611F8013B13F0DF0F02D02C
:104F1800093B042BF6D8013A12F8013F43B1202B84
:104F2800FAD0093B042BF7D94FF4807112F055FDE4
:104F3800A26817A9142307A802F5B07212F04BFC57
:104F48000799142962D82CAB002203EB810343F89C
:104F5800542C19B1002D4ED101294BD100250695AD
:104F6800069E002E40F0FA80DDF85CA0B046374679
:104F7800504612F0B4F9314603904B1C12AA284649
:104F8800029300F0C3FB0146002843D1012E62D1F1
:104F98002CAA069B384602EB830353F8546C12F094
:104FA8009EF90546304612F09AF9854205D02A1A2C
:104FB800391892B2204612F0E8FFA068B0F85A30CB
:104FC800034493F86030202B3BD0093B042B38D99D
:104FD800D0F88032DD0739D5002112F024FA2021DB
:104FE800204600F0E1FD0121A06812F01CFA0DE056
:104FF80001257AE70139002008AB17AA009306AB10
:10500800019012F0EDFC05460028A9D1606912F064
:105018003BFB79E6D1F800B05146039A584612F0A6
:1050280064F960B15846FBF75FF9404538BF404620
:10503800002E18BFBB4601361FFA80F85F4602995A
:105048009BE70121204612F017FEDFE720212046CA
:1050580000F0AAFDDAE70290D8D92CAA069B02EB49
:10506800830353F854AC504612F039F9A3680299F7
:105078000646A3F8441012AA284601F1010B00F0D5
:1050880045FB074648BB60694FF6FF76FFF75AFCB9
:10509800204600F0C1FD2CAA069B02EB830353F8BF
:1050A80054BC584612F01BF9394680464B1C12AACC
:1050B8002846029300F02AFB8246E0B94FF6FF73B8
:1050C8009E42A3D0002EA1D0A6EB080207EB080150
:1050D80092B2204612F059FF98E73F68324651468F
:1050E800384612F002F920B1424639462046FFF709
:1050F800C3FB5946BFE7DAF800304246594618461E
:10510800039312F0F2F888B1A068039BB9F1000F7D
:105118000ED01946FF2200F5B0704FF000091BF0C1
:1051280052F8A36883F85F92DAF800700299BDE735
:1051380000F25F104A4610F801CF995C614500D132
:1051480011B9904505D9F1E701324FF6FF718A424E
:10515800F1D1B242A8BF324696B2E7E72CAB03EBD7
:10516800860656F854BC00265846B14612F0B7F8E1
:1051780037468246B04612AA4146284600F0C6FA8B
:105188000346D8B9012E31D12CAA069B02EB830322
:1051980053F8540C12F0A3F8A268064639461C329C
:1051A800284600F0B3FA0568284612F098F88642B7
:1051B8003FF403AF821BA91992B2FBE61B68524663
:1051C80059461846029312F090F860B1029B1846AF
:1051D800FBF78AF8484538BF4846002E08BF4746BF
:1051E80001361FFA80F908F10108C4E703907FF639
:1051F8000DAF2CAB069AB046BB4603EB820252F8C1
:1052080054AC504612F06BF8A268039B0290A2F8C7
:105218004430A268594628460BF1010B1C3200F0B5
:1052280075FA0368BAF1000F09D043B11846029A1B
:105238005146039312F059F8039B0028E9D04A46D7
:1052480019462046FFF718FBB8F10108E1D160695B
:1052580007F10109FFF776FB204600F0DDFC2CAAD8
:10526800069B02EB830353F8540C12F038F83946C6
:105278000DAA8046284600F049FA0746A068FF2292
:10528800396800F5B0701AF09EFF3B684FF6FF775B
:105298000293BA4612AA4946284609F1010B00F0C2
:1052A80035FAE0B1A1680022036801F25F1111F834
:1052B80001EF985C704503D110B101325245F6D127
:1052C800B8F1000F01D0424507DBBA4206F1FF36BC
:1052D800A8BF3A46012E97B201D0D946DAE7002F87
:1052E8003FF494AEA7EB0802029992B24144F0E66B
:1052F800A068D0F8803299077FF588AE012112F0B6
:1053080039F8204612F062FE80E6A068D0F88032B4
:105318009A077FF57BAE012112F02CF8A368D3F829
:1053280080321B07EDD4204612F031FE6EE620468F
:1053380012F019FD6AE6204612F00CFD204612F024
:1053480050FC10B96069FFF7FDFA0121A06812F05E
:1053580011F8A3689A7D012A02D103229A7555E6AD
:105368002046FFF7A5FC51E6204612F005FD4DE664
:10537800204612F00CFD49E6D2F880329E0603D58D
:105388005E49606911F080FFA368D3F880329D06FA
:1053980003D55B49606911F077FF204600F03CFCBB
:1053A80034E60021204611F0F0FF2FE60121F9E74D
:1053B800E06983681B79012B02D112F093FE25E680
:1053C800022B7FF423AE526D214612F074FE1DE6C7
:1053D800204612F0B8FC204611F04BFF0121A068CE
:1053E80011F0C8FF2046FFF78BFA0FE6204600F0C1
:1053F80009FB0121A06811F0BDFF07E65B2B02D174
:105408000223537502E6D2F88022900706D5622B54
:1054180007D14FF0FF31204612F056FCA368002256
:105428002FE5662BFAD10121F5E700215175A26815
:10543800D2F8801289077FF567AC313B1B2B3FF60A
:10544800E5AD01A151F823F0CD540008D954000866
:10545800ED540008C1540008155000081550000804
:105468001550000815500008155000081550000880
:105478001550000815500008155000081550000870
:105488001550000815500008B5530008AB53000824
:10549800715300083753000815500008C554000818
:1054A80015500008D1540008155000081550000880
:1054B80015500008DD54000803235375204612F0E8
:1054C80049FCA3E503235375204612F03CFC9DE5F7
:1054D80003235375A068D0F8801201F0010181F010
:1054E800010182E503235375A368D3F880329B0733
:1054F8007FF58CAD17E7002383E700BF5D14020832
:1055080062140208D3B5044612F02FF838BB4FF0E6
:10551800FF364FF0FF37A06800F522700022072100
:10552800CDE900671AF0C3FDA06811F010FF0D4A1D
:105538000421204611F086FF0B4A0121204611F074
:1055480081FF2046094A022111F07CFF6068036848
:105558005B6903B19847A06811F0F5FEDBE702B07C
:10556800D0BD00BF2149000841750108194C000849
:1055780010B504460C4A082112F029F820460B4AB7
:10558800082112F024F82046094A082112F01FF8D1
:105598002046084A082112F01AF82046064A002137
:1055A80000F04CFC002010BD553E0208933E020856
:1055B800F23E0208463F0208E13F02082DE9F041A9
:1055C8000446806888B08846D0F8AC6215461F4605
:1055D800002E6AD14FF42D7231461AF0BDFDA06835
:1055E80000F522701AF057FDA06800F52570012219
:1055F80066F3820511461AF0C3F8A3694FF40071E7
:105608001E60A06800F5217011F04BFEA3685022BF
:105618002046DA871822A3689A87216811F0E6FFE6
:10562800A368234A4146C3F88052606803681D682E
:105638002346A8470546B8B9A36801221A75A06889
:1056480000F52170A7B14FF4804111F02AFEA3683C
:1056580000210E9A5A65606803689B68984705465A
:1056680058B1204611F055FE284608B0BDE8F08133
:105678006FF4804111F024FEE9E7D4E90A01002221
:1056880000230495CDE906230E234FF48052CDE97B
:105698000253CDE90045074B0DF0EAFAA368C3F8B9
:1056A800AC02616A0DF024FADEE76FF07705DBE7FC
:1056B8002D7501080D55000810B5044613460A4615
:1056C8000146064801F0C0FD23691B7923B1204635
:1056D800BDE8104011F0D8BF10BD00BFA976010881
:1056E80010B504460B4602460649074810F0BCFFB1
:1056F80023691B7923B12046BDE8104011F0C4BFCF
:1057080010BD00BF51720008A976010810B50B46FC
:10571800144648B91749184A521AB3EB920F05D2E2
:1057280051F82340204610BD82680AB90024F9E7E1
:1057380012498A420FD312498A420CD2A27C2146CE
:1057480022F00302A2748268184612689047236800
:10575800002BE7D1EAE70B498A4202D30A498A4279
:1057680005D3126814214B43D418D358F0E70133FA
:10577800F8E700BFB0120208041302081C1402085C
:1057880024140208041302081C140208F7B503784D
:10579800044615462D2B05D16FF0150300202B600C
:1057A80003B0F0BD00230C4F01F0BCFB0646C3510B
:1057B8000A46204601A90EF06BFBF359222B02D1B1
:1057C8006FF02103EAE7002BE6D1019BA342E3D067
:1057D8001B78002BE4D0DFE70C000000F8B50025AB
:1057E80016461F46244A0B460821044611F0EFFED0
:1057F800AF4210D9735D0821204A204611F0E7FE18
:105808000135102D0DD06A07F2D11D4A0821204616
:1058180011F0DDFEECE71B4A0821204611F0D7FE07
:10582800EEE70025184A0821204611F0D0FEBD42B7
:1058380015D2735D08212046A3F120025F2A134A7E
:1058480028BF2E2311F0C3FE0135102D0DD06B0794
:10585800EDD10B4A0821204611F0B9FEE7E7084AC6
:105868000821204611F0B3FEEEE72046084A082139
:10587800BDE8F84011F0ABBE1040020874320208CF
:105888007C3202087A3202087E3202081E40020880
:10589800174002088368D3F880329B0603D5024973
:1058A800406912F07FB9704768140208014912F084
:1058B80079B900BF263602080A1E0DDC0ED0422335
:1058C8008168D1F88012890608D5002A0449406900
:1058D800B8BF524212F066B94123F1E7704700BFE2
:1058E8001A4002080A1E0DDC0ED044238168D1F844
:1058F8008012890608D5002A04494069B8BF524277
:1059080012F050B94323F1E7704700BF1A4002086C
:105918002DE9F0478468054604F16000FAF7E4FCD5
:10592800002287B294F840809146E68FA6EB0806DD
:10593800BE4209DB002F21DD60326869104922442C
:10594800BDE8F04712F02EB9164460320D493444D0
:1059580094F860A084F86090AB6868691A4412F003
:1059680021F9AB683246334483F860A0AC68E38F12
:10597800A3EB08034FF00008FF1AD6E7BDE8F0874D
:10598800D73802080535020808290A4617D8836857
:1059980093F84210914212D083F84220082A836873
:1059A800D3F8803205D0990609D50549406912F027
:1059B800F9B89B0603D50349406912F0F3B870475C
:1059C800214002086D14020838B50D4609780446CE
:1059D800FFF7DAFF6A78072A11D8A36893F843100B
:1059E80091420CD083F84320A368D3F880329B06F9
:1059F80005D560690249BDE8384012F0D3B838BD12
:105A08002A400208F8B583680446B3F85820002AEB
:105A180055D0B3F85A10002951D05F3103F1600511
:105A28000B441846A84206D3014611F80169202EF6
:105A38003CD0A8423CD286B2471C9DB2AB1B9BB25D
:105A4800591CD21A014438461AF06DFBA268711B22
:105A58002046B2F8583013FA81F309B2A2F8583048
:105A6800A368B3F858201344002283F8602012F08A
:105A780003F9A368D3F880329A0603D51049606900
:105A880012F090F83B460F4A0821204612F036FAE9
:105A98002046FFF7FFFEA368D3F880329B060ED599
:105AA80060690949BDE8F84012F07CB80846B9E7D2
:105AB800014611F80169202EBDD00846B9E7F8BDA6
:105AC80072140208D7380208761402082DE9F04744
